{
  "transactions": [
    {
      "hash": "0x20e238dfbee3a016ee2e479060befc68e09662dcd36f92de531000efd7e93305",
      "transactionType": "CALL",
      "contractName": null,
      "contractAddress": "0x836A57a4B76242453Fb2D389Eb8862eDfc373dEd",
      "function": "unlock(bytes16)",
      "arguments": [
        "0x10993f632a8df852a243a0acba20845100000000000000000000000000000000"
      ],
      "transaction": {
        "type": "0x02",
        "from": "0x368a8eb0f28766a13fb803e0777eb68a25a2080d",
        "to": "0x836a57a4b76242453fb2d389eb8862edfc373ded",
        "gas": "0x819b",
        "value": "0x0",
        "data": "0xe1afb08c10993f632a8df852a243a0acba20845100000000000000000000000000000000",
        "nonce": "0x6",
        "accessList": []
      },
      "additionalContracts": [],
      "isFixedGasLimit": false
    }
  ],
  "receipts": [
    {
      "transactionHash": "0x20e238dfbee3a016ee2e479060befc68e09662dcd36f92de531000efd7e93305",
      "transactionIndex": "0x1",
      "blockHash": "0xdff34dcb492c489181a633d28f12b2aa0c34f8401dca3738ae25304513a6b59a",
      "blockNumber": "0x705031",
      "from": "0x368A8eB0f28766a13fB803E0777eb68A25a2080d",
      "to": "0x836A57a4B76242453Fb2D389Eb8862eDfc373dEd",
      "cumulativeGasUsed": "0xafde",
      "gasUsed": "0x5dd6",
      "contractAddress": null,
      "logs": [
        {
          "address": "0x0000000000000000000000000000000000001010",
          "topics": [
            "0x4dfe1bbbcf077ddc3e01291eea2d5c70c2b422b415d95645b9adcfd678cb1d63",
            "0x0000000000000000000000000000000000000000000000000000000000001010",
            "0x000000000000000000000000368a8eb0f28766a13fb803e0777eb68a25a2080d",
            "0x0000000000000000000000004ad84f7014b7b44f723f284a85b1662337971439"
          ],
          "data": "0x0000000000000000000000000000000000000000000000000000418b2c54940000000000000000000000000000000000000000000000000002ba67305c7e596a0000000000000000000000000000000000000000000000acc34210e682eb59fa00000000000000000000000000000000000000000000000002ba25a53029c56a0000000000000000000000000000000000000000000000acc3425271af3fedfa",
          "blockHash": "0xdff34dcb492c489181a633d28f12b2aa0c34f8401dca3738ae25304513a6b59a",
          "blockNumber": "0x705031",
          "transactionHash": "0x20e238dfbee3a016ee2e479060befc68e09662dcd36f92de531000efd7e93305",
          "transactionIndex": "0x1",
          "logIndex": "0x2",
          "removed": false
        }
      ],
      "status": "0x1",
      "logsBloom": "0x00000000000000000000000000000000000000000000000000000000000000000000000000000000000000000000000000008000000000000000000000400000000000000000000000000000000000800000000080000000000100001000000000000000000000200000000000000000000000000000000080000000000000000000000000000000000000000000000000000000000000000000000000000000200008000000000000000000000000000000000000000000000000000000004000000000000000000001000000000000000000000000000000100000000000000000000000000000000000000000008000000000000000000000000000100000",
      "type": "0x2",
      "effectiveGasPrice": "0xb2d05e10"
    }
  ],
  "libraries": [],
  "pending": [],
  "returns": {},
  "timestamp": 1716390453,
  "chain": 80002,
  "commit": "deca09e"
}